:020000040800F2
:10000000000001201103000819030008F101000895
:10001000F5010008F9010008FD01000800000000DA
:100020000000000000000000000000004D02000879
:100030002503000800000000E5020008F5020008A2
:100040002B0300082B0300082B0300082B030008D8
:100050002B0300082B0300082B0300082B030008C8
:100060002B0300082B0300082B0300082B030008B8
:100070002B0300082B0300082B0300082B030008A8
:100080002B0300082B0300082B0300089D16000813
:100090008D1600082B030008951600082B03000896
:1000A0002B0300082B0300082B0300082B03000878
:1000B0002B03000800000000000000002B030008D4
:1000C0002B03000800000000000000002B030008C4
:1000D000000000002B0300082B03000800000000B4
:1000E0002B0300082B0300080000000000000000A4
:1000F0000000000000000000000000000000000000
:100100000000000000000000000000002B030008B9
:1001100000000000000000002B0300082B03000873
:100120002B0300082B0300082B0300082B030008F7
:100130002B03000800000000000000000000000089
:100140002B0300082B0300082B0300082B030008D7
:100150002B0300082B0300082B0300082B030008C7
:100160002B0300082B0300082B03000800000000ED
:100170002B0300082B030008000000000000000013
:100180002B0300082B0300082B030008DFF85CD0CA
:1001900000F0B0FF00F0CEF801F0BCF942F2686068
:1001A0004FF60041C2F20000C2F20001016042F2CB
:1001B000646040F20041C2F20000C0F20001016040
:1001C00042F25C6043F26021C2F20000C2F2000120
:1001D000016042F258604CF6A011C2F20000C0F279
:1001E0000001016014F01EFA14F0F0FD000001207F
:1001F000102304E0202302E0302300E040239C464B
:10020000F0B404AE7546E80801D3EFF309860E4F4B
:100210000FCE0FC70FBC0FC74046494652465B463C
:100220000FC71DCE3100A60A00D304316E0900D2DB
:1002300048311FC7EFF309806946EFF3148663C79F
:100240006046014914F050F9042600201EF0040F06
:100250000CBFEFF30880EFF30980816911F8021CED
:1002600091BB01B590E80F10E047BDE800508CE865
:100270000300244B93E80600914208BF704741B940
:100280001EF0100F10D12049086820F0010008600E
:100290000AE02CE9F00F1EF0100F08BF2CED108AB9
:1002A000C1F838C081F822E01A6092F82210906BF1
:1002B00061F0FF0E1EF0100F08BFB0EC108AB0E81E
:1002C000F00F80F309887047104A13689942FAD8F2
:1002D00001B552F821C00FC8E047BDE80050CCF886
:1002E0000000704701B515F0C7FABDE80140EFF313
:1002F000098CBEE701B515F06DFDBDE80140EFF3D7
:10030000098CB6E76802002034EF00E0649601082B
:100310000648804706480047FEE7FEE7FEE7FEE79F
:10032000FEE7FEE7FEE7FEE7FEE7FEE77957000897
:100330008D010008042104A011F0D4FA03490860DB
:1003400003490860FFF728FF3A7474001003002087
:10035000FC02002010B5044603E000F011F8401C38
:1003600009D014F8010B05490028F6D1BDE810406A
:100370000A2000F005B84FF0FF3010BDFC0200204D
:1003800038B505468DF800000C46086800230122A8
:10039000694611F0CBFA10B14FF0FF3038BDE0687C
:1003A000401CE060284638BD2DE9F05F054600207E
:1003B00092469B4688460646814640241BE02846D6
:1003C00041464746224600F053FB53465A46C01A60
:1003D000914110D311461846224600F03AFB2D1ADF
:1003E00067EB01084F4622460120002100F031FB57
:1003F00017EB00094E41201EA4F10104DFDC484642
:1004000031462A464346BDE8F09F2DE9F0410024DD
:10041000061B254671F1000605DA01240027D0EB02
:10042000070067EB0101161E73F1000605DA0027CD
:10043000D2EB0702012567EB0303FFF7B5FF864602
:100440000E4617469C46AC4204D00025D0EB050E64
:1004500065EB010624B10020D2EB000760EB030C32
:10046000704631463A466346BDE8F0810048704721
:10047000108A010810B5431A934209D283188818CC
:1004800003E010F8011D03F8011D521EF9D210BD42
:1004900040EA01039B0703D009E008C9121F08C006
:1004A000042AFAD203E011F8013B00F8013B521E86
:1004B000F9D210BDD2B201E000F8012B491EFBD2E7
:1004C00070470022F6E710B513460A46044619465F
:1004D000FFF7F0FF204610BD10B5044604E00B788E
:1004E00000F8013B03B1491C521EF8D2204610BD52
:1004F000421C10F8011B0029FBD1801A704710B56F
:10050000002200E0521C835C8C5CA34201D1002BD2
:10051000F8D1D8B2E1B2401A10BD30B5044600207F
:10052000034600E05B1C934203D2E05CCD5C401BC1
:10053000F8D030BD034611F8012B00F8012B002A3A
:10054000F9D11846704730B505460020034600E053
:100550005B1C934205D2EC5CC85C201A01D1002CD4
:10056000F6D130BD30B503461D783DB10A4612F8CC
:10057000014B1CB1AC42FAD15B1CF5E7181A30BD37
:1005800030B50546002008E00A4602E0A34207D045
:10059000521C1378002BF9D1401C2C5C002CF3D199
:1005A00030BD000000B58DB0099000920B904FF067
:1005B000FF300A9000200C900448069004480790F1
:1005C0006A4609A800F0D4FC0DB000BD8D0F0008EC
:1005D000AB0F00080FB400B58DB010A909900B90B7
:1005E00000914FF0FF300A9000200C9005480690D3
:1005F000054807906A4609A80F9900F0B9FC0DB0AC
:100600005DF814FB8D0F0008AB0F00082DE9FF5FAC
:100610001D464FF0FF3BD5E9014691465F464FF03E
:100620000008A9697F1C01988847296A8246884783
:100630000028F6D1BAF1FF3F0CD024F4C064002E9C
:1006400019DD600614D5BAF12B0F09D0BAF12D0FC0
:100650000ED103E0584604B0BDE8F09F44F4806436
:10066000A9697F1C01988847761E8246002E02DD0C
:10067000BAF1300F03D0B9F1000F26D032E0A969EA
:10068000761E44F400747F1C019888478246002E31
:1006900005DDBAF1780F06D0BAF1580F03D0B9F1E1
:1006A000000F10D01EE0B9F1000F02D0B9F1100F09
:1006B00018D1A969761E24F400747F1C019888471C
:1006C0008246102002E0082000E00A20814609E06E
:1006D00008FB0908A969761E44F400747F1C019880
:1006E00088478246002E05DD4946504600F0D0F985
:1006F0000028EDDAE96901988847A00502D46FF077
:100700000100A8E7E00725D1600613D5600502D5F2
:10071000C8F1000000E0404629680A1D2A60096807
:10072000220501D5087015E0220701D5088011E0E7
:1007300008600FE02868011D29600068210502D5C6
:1007400080F8008006E0210702D5A0F8008001E0D3
:10075000C0F8008038467EE72DE9FF5FD2E901A7A7
:100760004FF00008916999461446DDF838B04646C6
:1007700001988847054659EA0B0005D009E0A169B0
:10078000761C019888470546216A28468847002834
:10079000F5D1681C03D05FEACA7005D015E04FF0B0
:1007A000FF3004B0BDE8F09F2068011D2160D0F843
:1007B00000800AE05FEACA7001D108F8015BA16914
:1007C000761C7F1E019888470546002F1ADD681C9D
:1007D00018D0B9F1000F0DD0E81705EBD060421129
:1007E00020F01F0059F822102A1A012090400142DF
:1007F000E0D107E0BBF1000FDCD1216A2846884731
:100800000028D7D0E16901988847BBF1000F07D1D4
:10081000002E05DD5FEACA7002D1002188F80010C1
:10082000A068B84203DDBBF1000F03D017B16FF031
:100830000100B6E73046B4E770B5054C054D04E05D
:100840002046016808448047241DAC42F8D170BDA1
:1008500068A401086CA401082DE9FE4F81EA030495
:1008600004F0004421F0004100944FF0000B23F00D
:10087000004350EA01045ED052EA03045BD0C3F3A4
:100880000A54C1F30A552C44A4F2F3340194A0FB9A
:100890000254C1F3130141F48011C3F3130343F471
:1008A000801301FB024400FB034E840A970A44EACA
:1008B000815447EA8357A4FB076802958D0A05FB1C
:1008C00007854FEA932C04FB0C542705029D4FEA41
:1008D000065847EA1637B5EB08056EEB070C870E8E
:1008E000920E47EA811742EA8312A7FB0201B6EB98
:1008F0000B0164EB00042B0D43EA0C335E1844EB50
:100900001C50DA465146E7FB0201C5F313044FEAD7
:100910000B3343EA14534FEA0432019C43EA0603C3
:10092000A4F10C040294009CCDE900B400F094FB07
:1009300003B0BDE8F08F00200146F9E72DE9F04D46
:1009400081EA030404F0004B21F0004514464FF007
:10095000000A23F0004150EA050220D054EA0102C7
:100960001DD0C5F30A570246C5F31303C1F31300A4
:10097000C1F30A5640F4801543F48013A7EB060830
:10098000101BD64608F2FD3873EB050002D308F1C0
:10099000010801E092185B41B8F1000F03DA002072
:1009A0000146BDE8F08D00204FF4801106468446D4
:1009B0000EE0171B73EB050705D3121B63EB050352
:1009C00006434CEA010C49084FEA300092185B419B
:1009D00050EA0107EDD152EA030012D082EA040086
:1009E00083EA0501084305D0101BAB4106D2012262
:1009F000002306E000224FF0004302E06FF0010206
:100A000053101AEB06004CEB085110EB0A0041EBB7
:100A10000B01BDE8F04D00F010BB01F0004330B415
:100A200021F0004150EA010206D00A0DA2F56072E1
:100A3000C1F31301002A02DC30BC00207047440FD0
:100A400044EAC104C100E01830BC00EBC25000F021
:100A5000BDBA202A04DB203A00FA02F100207047D8
:100A60009140C2F1200320FA03F3194390407047EC
:100A7000202A04DB203A21FA02F00021704721FAF3
:100A800002F3D040C2F1200291400843194670475A
:100A90003A2800D2303820F02002412A01D3A2F1B6
:100AA0003700884201D34FF0FF3070472DE9FF4FE8
:100AB0001C4681B00021D4E9016791464FF0FF3513
:100AC0008A468846A1696D1C02988847216A834638
:100AD00088470028F6D1BBF1FF3F0CD026F4C06652
:100AE000002F1ADD700615D5BBF12B0F0AD0BBF114
:100AF0002D0F0FD104E04FF0FF3005B0BDE8F08FAF
:100B000046F48066A1696D1C029888477F1E834663
:100B1000002F02DDBBF1300F03D0B9F1000F2AD056
:100B200025E0A1696D1C46F400767F1E0298884777
:100B30008346002F05DDBBF1780F06D0BBF1580FBF
:100B400003D0B9F1000F10D011E0B9F1000F02D0BD
:100B5000B9F1100F0BD1A1696D1C26F400767F1E30
:100B6000029888478346102000E0082081464FEA1B
:100B7000E970009017E00A20F8E74346AAFB09282D
:100B800003FB0980DDF800C07F1E0AFB0C0112EB9D
:100B90000B0A41EBEB78A16946F4007605F10105FB
:100BA000029888478346002F06DD49465846FFF7DE
:100BB0006FFF5FEA000BE0D5E16902988847B00556
:100BC00002D46FF0010098E7F00718D1700610D535
:100BD0007005514605D50023D1EB030163EB0802F4
:100BE00000E042462068031D23600068C0E900124F
:100BF00005E02068011D21600068C0E900A82846C2
:100C00007BE700002DE9FF4F087883B09946FF2865
:100C100005D0491C2D2804D00024002008E0002025
:100C20000BE00124F9E700EB800003EB4000491CD6
:100C30000B78FF2BF7D104B14042002302931478C4
:100C400019461D462D2C01D02B2C04D1521C2D2CC5
:100C500013D000240294AA461478FF2C0FD00A2542
:100C6000A3FB057801FB05814FF0000C03FB0C1181
:100C7000521CE3194AEB0101EEE70124EAE7814443
:100C800053EA010002D019F5C87F06DA0398002163
:100C9000C0E9001107B0BDE8F08F0025AE4E2F4629
:100CA000DFF8B882184600F0CDFBCDE90001B9F1BC
:100CB000000002DAC9F1000400E004460023A74A5C
:100CC0001AEB030B42EB045A12E0E00707D02A4666
:100CD000334638464146FFF7BFFD074688462A4659
:100CE000334610461946FFF7B7FD05460E46641019
:100CF000002CEAD1DDE90001B9F1000F5A46534654
:100D000006DAFFF71BFE3A464346FFF717FE05E0FB
:100D1000FFF7A2FD3A464346FFF79EFD029A0AB14D
:100D200081F00041039AC2E90001B3E72DE9FF4FCA
:100D30001F468DB0D7E901464FF0FF382E204546BB
:100D40004FF000090B90B9696D1C0E988847396AFD
:100D5000824688470028F6D1BAF1FF3F0AD024F432
:100D6000D064002E11DDBAF12B0F08D0BAF12D0F8F
:100D70000BD102E0404611B08DE744F48064B969BC
:100D80006D1C0E9888478246761E6946600501D51F
:100D90002D2000E02B208DF8000001F1010B0DF15A
:100DA000200809E0B9696D1C0E98884782460F98A3
:100DB00044F40074761E0560002E02DDBAF1300F97
:100DC000F0D00B998A453ED144F0800406E00F999B
:100DD000681CA9F1010944F400740860B9696D1C2C
:100DE000761E0E98884782463028F0D02BE00B996B
:100DF0008A4505D1200603D444F08004761E18E00D
:100E0000504617F0BDFD08B30DF11302761EAAF18E
:100E1000300044F40074934506D20BF8010B200611
:100E200007D5A9F1010003E0200602D409F1010071
:100E30008146A00502D50F99681C0860B9696D1C30
:100E40000E9888478246002ED1DC53E0002E51DDFB
:100E5000BAF1650F02D0BAF1450F4BD1A00549D5C3
:100E6000B9696D1C24F44074761E0E98884782463A
:100E7000002E0CDD2B2804D0BAF12D0F07D144F43D
:100E80008074B9696D1C0E9888478246761EE0050D
:100E900001D52D2100E02B2108F8011BCDF82C8075
:100EA00021E00DF12901761E44F4007488450CD22E
:100EB000AAF1300010F0FF0088F8000002D10B9971
:100EC000884509D908F1010806E0E00501D5244864
:100ED00001E042F20F708146B9696D1C0E98884797
:100EE00082460F980560002E04DD504617F048FD3D
:100EF0000028D6D1F9690E988847FF208BF80000AA
:100F000088F800000020069007904B466A4608A922
:100F100006A8FFF777FEA00502D46FF001002AE7CC
:100F200014F0240F0AD0E00714D1DDE90612386866
:100F3000031D3B600068C0E900120BE0DDE906011B
:100F4000FFF76BFD0146E00704D13868021D3A60E7
:100F50000068016028460EE7000014400000F03FE2
:100F6000F1D8FFFF026811441378016018467047FA
:100F7000D160044951610449116200211161114697
:100F800000F0CAB8650F00086D3B0108426842B125
:100F9000016811F8013B23B1521EC0E90012184646
:100FA00070470121C160881E704742685AB1C3680A
:100FB000016843B983688B4205D0491E521CC0E9C1
:100FC0000012002070474FF0FF3070470029A8BF83
:100FD0007047401C490008BF20F00100704710B462
:100FE000B0FA80FC00FA0CF050EA010404BF10BC17
:100FF000704749B1CCF1200421FA04F411FA0CF144
:1010000018BF012121430843A3EB0C01CB1D4FEA7C
:1010100000614FEA102042BF002010BC704700EB77
:10102000C35010440029A4BF10BC7047401C4900A5
:1010300008BF20F0010010BC704710B5141E73F1FA
:10104000000408DA401C41F1000192185B411A4388
:1010500001D120F0010010BD2DE9F04D92469B46D4
:1010600011B1B1FA81F202E0B0FA80F2203290467A
:10107000FFF7EFFC04460F4640EA0A0041EA0B0185
:1010800053465A46084313D0114653EA010019D07B
:10109000C8F140025046FFF7EBFC05460E465046AD
:1010A00059464246FFF7D5FC084305D0012004E02D
:1010B00020463946BDE8F08D0020054346EAE0763B
:1010C0002C4337430A986305E40AA0EB080000228A
:1010D000FD0A44EA47540A3002D500200146E9E7F8
:1010E000010510196941DDE9084500196941BDE8AC
:1010F000F04DA2E7064C074D06E0E06840F0010322
:1011000094E8070098471034AC42F6D3FFF742F852
:1011100048A4010868A401082DE9F34F8BB04FF0F3
:10112000000801F10C000C464FF0010B46460DF192
:10113000080A01906269012101989047051E2DD08F
:10114000252D2CD0216A8847C0B162690121019800
:101150009047216A88470028F7D1411E62690198AB
:10116000904700E0761CA1690B988847216A884760
:101170000028F7D1E1690B988847DBE7A1690B9854
:1011800088470746A84201D1761CD3E7E1690B984E
:1011900088477F1C02D1B8F1000F6FD046E10027CD
:1011A00062693D463946019890472A2804D1626910
:1011B0000121019890470125DFF88492626901219D
:1011C00001989047A0F130010A290AD24F45E5DC89
:1011D00007EB870100EB4107303FDFD445F01005F6
:1011E000ECE7E90601D46FF000476C280AD04C28E0
:1011F00014D0682815D06A280DD074281CD07A28FD
:101200001AD01DE062690121019890476C2802D034
:1012100045F0040514E045F002050DE045F0200519
:101220000AE06269012101989047682802D045F0E0
:10123000080505E045F400656269012101989047C1
:10124000C4E9015765283DD019DC58287AD00CDC58
:10125000452837D004DC252826D0412831D131E07B
:1012600046282FD047282CD12CE05B2877D0612846
:1012700028D063287CD0642823D15AE0D0E06F289E
:1012800048D008DC66281DD067281BD0692821D0EB
:101290006E2816D127E0702845D0732868D07528AD
:1012A00047D078280DD14DE0A1690B9888470546B5
:1012B00025283FF469AFE1690B9888476D1C3FF41E
:1012C0006AAFB3E023466A466FF001000B99FFF75F
:1012D0002DFD9EE045F040006060A80723464FF0DA
:1012E000000236D43EE0E8077FF447AF2068011DD6
:1012F00021600068290501D506701BE7290701D583
:10130000068017E7A90703D5F117C0E9006111E7C7
:1013100006600FE745F040006060A80723464FF0E5
:10132000080216D41EE040F60E0125EA01006060B6
:1013300016E045F040006060A80723464FF00A021F
:1013400007D40FE045F040006060A80708D52346A9
:1013500010226FF001000B99FFF7A8FB59E007E09E
:10136000234610226FF001000B99FFF74FF950E070
:101370004FF000094F464B46632802D05B2806D049
:1013800040E0E80601D40120A06001273AE062694C
:101390000121019890475E2805D14FF0010962694B
:1013A000494601989047216939B900210A465346B8
:1013B00043F82120491C0829FADBB0B3216969B937
:1013C000C11700EBD16253110AEB830122F01F0217
:1013D000821A01200B68904003430B60626901216F
:1013E000019890475D28E8D1B9F1000F09D000209D
:1013F000514651F82020D24341F82020401C0828B3
:10140000F7DB02AB224600976FF001000B99FFF764
:10141000A3F900280CDA401C08D1BBF1000F05D05D
:101420004FF0FF300DB0BDE8F08FFFE74046F9E721
:10143000E90701D108F1010806444FF0000B79E6F5
:10144000CCCCCC0C0EB540F2334202920022CDE956
:1014500000221346FFF700FE03B000BD30B58C1824
:1014600010F8012B12F00F0301D110F8013B120903
:1014700006D110F8012B03E010F8015B01F8015BC5
:101480005B1EF9D101E001F8013B521EFBD1A142E4
:10149000E6D3002030BD000083B080B583B0844621
:1014A00005A840F2FC2E0EC005ABC2F2000E0020D3
:1014B0006FF0004162460293CDF800E013F0C8F8E7
:1014C00003B0BDE8804003B07047000082B080B533
:1014D00082B08C46CDE9042304AB4FF0000E6FF0D0
:1014E000004162460193CDF800E013F0B1F802B07C
:1014F000BDE8804002B0704780B582B013460A460E
:10150000844600206FF00041CDF800C013F0A0F831
:1015100002B080BD70470000002070470020704777
:10152000002070470020704700207047002070475F
:1015300000207047002070470020704780B582B0BF
:1015400013460A46844600206FF00041CDF800C0E3
:1015500013F07EF802B080BD80B582B04FF0000C71
:10156000CDF800C013F074F802B080BD80B582B031
:1015700013460A464FF0000C6FF00041CDF800C052
:1015800013F066F802B080BDB0B50446006802F002
:10159000FFFF21680546084602F0FEFF01464FF0B6
:1015A00000001DBB002908BFB0BD2068816801F0A4
:1015B0000D0101291BD102F0A1FF20680321016068
:1015C00000F062FC054600BF20688068C00718D0A4
:1015D00000F05AFC401B0328F6D3606D40F0100069
:1015E0006065A06D40F00100A0650120B0BD606D98
:1015F00040F010006065A06D40F00100A065012082
:10160000B0BD0020B0BD0000B0B50446006802F0D7
:10161000C3FF08B10020B0BD20683F228168C8F236
:101620000002114209D0606D40F010006065A06DAD
:1016300040F00100A0650120B0BD02F071FF00F094
:1016400023FC054605E000BF00F01EFC401B0328FC
:10165000E9D220680168C907DCD102F09DFF0028AB
:10166000F2D1206802F05CFFEEE700004EF69851E0
:10167000CEF2000108600020886070474EF69C5250
:10168000CEF20002106051607047000080B510F08B
:1016900009FC80BD80B510F005FC80BD80B510F060
:1016A00001FC80BD4EF60450CEF200004FF0006108
:1016B0000160704780B5930706D4D20700F10C0093
:1016C00015D110F007FB80BDC36802F0010203EAE8
:1016D000010040EA020C8842184618BF0020002A88
:1016E00008BF1846BCF1000F08BF604680BD10F06F
:1016F000C9FA80BD80B50C3010F0A6FB80BD00009B
:101700007047000080B540F23712C8F2010216F0AF
:10171000EFFE80BD80B540F23112C8F201020146F1
:1017200016F0E6FE80BD000080B540F23812C8F227
:10173000010216F0DDFE80BD80B540F23312C8F222
:10174000010216F0D5FE80BD11F1110208BF7047ED
:1017500080B540F23412C8F2010216F0C9FEBDE8AD
:101760008040704780B540F23212C8F2010216F094
:10177000BFFE80BD80B514F02BFC16F0DDFD80BDF2
:1017800080B516F0D9FD80BD4EF60450CEF20000B3
:101790000068102101EA10607047000080B5006801
:1017A00002F0D2FE80BD000070B582B00446002079
:1017B000019094F85000012801D1022530E0012069
:1017C00084F8500020460E46FFF7DEFE0546606DA9
:1017D00015B140F010001FE041F2021188430230C1
:1017E00060652068314602F069FF00BF206802F0A2
:1017F000C7FE68B10198013001900198B0F5912FB2
:10180000F4D3606D012540F0100020F0020003E0E9
:10181000606D012161F301006065002084F85000D3
:10182000284602B070BD0000F0B581B0044600202B
:10183000009094F85000012802D1022001B0F0BDC0
:1018400020680D46012184F8501002F0ADFE48B129
:10185000606D40F0200060650120002184F8501088
:1018600001B0F0BD6868052807D8023803289ABF80
:10187000B5A151F82000062068602068D5E9002154
:1018800002F09EFE206802F08FFE216806460846A0
:1018900002F072FE304340F09B8020682968AA68FD
:1018A00002F0ACFE206829696B69C268042940F027
:1018B00088804FF6FF770021C0F2070702F056FE3E
:1018C000216806460846002102F050FE720390FA95
:1018D000A0F12A68B1FA81F108BFC0F3846192FADD
:1018E000A2F0B0FA80F0530308BFC2F384608142D3
:1018F00003D12068002102F0D9FE2068012102F006
:1019000035FE216806460846012102F02FFE90FAB6
:10191000A0F12A68B1FA81F13E4208BFC0F38461A8
:1019200092FAA2F0B0FA80F03A4208BFC2F38460A3
:10193000814203D12068012102F0B8FE2068022113
:1019400002F014FE216806460846022102F00EFE4F
:1019500090FAA0F12A68B1FA81F13E4208BFC0F3C3
:10196000846192FAA2F0B0FA80F03A4208BFC2F362
:101970008460814203D12068022102F097FE206832
:10198000032102F0F3FD216806460846032102F018
:10199000EDFD90FAA0F12A68B1FA81F13E4208BF4C
:1019A000C0F3846192FAA2F0B0FA80F03A4208BF24
:1019B000C2F3846081420BD12068032102F076FEDD
:1019C00006E0062707EA92072A68BB4002F05CFEA1
:1019D000206802F0E1FD00284DD120682968EA68FE
:1019E00002F01EFEE8680021C4F27F01884242D165
:1019F000D5F800E04FF080619EFAAEF27346B2FA7D
:101A000082F76FF3DF433A462068002B08BF4FEAA6
:101A10009E62561C01EB826106F01E0C01F0F8423A
:101A200006F01F010126BCF1090F06FA01F60DD8D8
:101A300042EA0601002B08BF4FEA9E677A1C02F0BB
:101A40001F0202EB420241EA025111E0002B08BFE3
:101A50004FEA9E67791C01F01F01002301EB410151
:101A6000CFF6206303EB01513243114341F0007183
:101A7000AA6802F0C3FD688848F20801084226D02F
:101A800002F06CFD2A680021CCF252718A420146B4
:101A900008BF11F400001CD00020CCF68430824234
:101AA00008BF11F080701CD00120C8F200008242F3
:101AB0004FF0000008BF11F480027FF4CEAE206822
:101AC0000022C5F20402904236D00020C5E6002074
:101AD000C3E620680022C5F20402904209D000202B
:101AE000BBE620680022C5F20402904221D000200B
:101AF000B3E641F4000002F0BDFD40F29C10C2F2DA
:101B00000000006842F663518009C0F23E51A0FB1C
:101B10000101880900EB400080000090009888B126
:101B2000009801380090009800284FF00000F7D18D
:101B300093E641F0807001E041F4800002F09AFDEC
:101B400000208AE6002088E60C0000001200000059
:101B500018000000000100000068006C70470000E1
:101B600070B582B0044600200190CCB1606D30B9F0
:101B7000204600F0BDF80020A06584F850002068E1
:101B800002F002FD10B1206802F0C2FC206802F0F1
:101B900007FD38B1206802F003FDD0B1002521E037
:101BA0000125A1E0206802F0C5FC40F29C10C2F2C1
:101BB0000000006842F663518009C0F23E51A0FB6C
:101BC00001018809019001980028E3D001980138AB
:101BD000F8E7606D012540F010006065A06D40F0F1
:101BE0000100A065206802F0DFFC616D01F01001CA
:101BF0000843606D03D040F01000012573E020F42D
:101C0000817002306065206802F0C6FC40B9002097
:101C1000C5F2040002F0C0FC10B9606802F016FDC5
:101C2000607E616B41EA4030D4E90221084394F8B8
:101C300020101043012940EA014106D1606A0022C8
:101C4000CFF6FE7202EB40400143A06A28B100F4D7
:101C50007070E26A084340EA020120684CF2070310
:101C6000C268CFF6F0731A401143C16002F09CFCC9
:101C700021680646084602F07FFC304324D194F8E0
:101C80003000217E4200206842EA8131C26844F27D
:101C900002039A431143C16094F838200169012A74
:101CA0000FD140F2FD7204F13C0621EA020C4CCE49
:101CB000A16C42EA0C021A433243114341F0010184
:101CC00001E021F00101016120682169026B012915
:101CD00022F00F0102D1E269013A11430163606D04
:101CE000012161F301006065284602B070BD00006B
:101CF000704700002DE9F04381B0D0F8148004460D
:101D0000B8F1080F0D4601D1082704E02068C0682B
:101D1000C00749D1042700F0B7F821680A683A42A1
:101D200027D0606D40F400706065084602F040FC0A
:101D300080B1607E70B92068006800070AD5606DC8
:101D400020F480706065606DC00403D4606D40F065
:101D5000010060652068B8F1080FC16801D1082151
:101D600002E0490401D40C210160002001B0BDE86B
:101D7000F08381466E1C03E0216808683842D0D1A8
:101D8000002EF9D000F080F81DB1A0EB0900A842A8
:101D9000F2D9606D40F004006065002084F85000C6
:101DA000032001B0BDE8F083606D40F02000606565
:101DB000012001B0BDE8F083B0B50446006802F030
:101DC000F3FB18B994F85000012801D10220B0BDEE
:101DD000012084F850002046FFF716FC054620B18C
:101DE000002084F850002846B0BD606D40F60171B7
:101DF000884300F580706065606D0021C0044FF07D
:101E0000000044BFA06D20F00600A06520681C22E1
:101E1000026084F85010C168890104D5616D012207
:101E200062F30D31616502F0DFFB2846B0BD0000B2
:101E300080B590F82510022921D10168D0F838E04A
:101E4000D0E910C30A68BEF1000F22F00E020A604A
:101E50000A6822F001020A6003F01C014FF001023F
:101E600002FA01F1CCF804104FF0000180F82520AF
:101E700080F8241001D0F0470021084680BD0421DD
:101E8000C1630121084680BD10B5242042F6F86EDA
:101E9000C4F20000C2F2000E42F6F46C0268DEF8F2
:101EA0000030C2F2000CBCF80000D11A014400243A
:101EB000B4EB114FCEF8002017D1B1F57A7F20D3C3
:101EC0001044C01A44F6D351A0F57A70C1F26201F1
:101ED000A0FB01124FF618439109CFF6FF7301FBE7
:101EE0000301012000EB92120CE044F6D350C1F242
:101EF0006200A1FB000292094FF47A7002FB1011FC
:101F000000E0002243F2D803C2F200031868ACF8E4
:101F100000101044186010BD90F84120202A03D111
:101F200090F84020012A01D102207047242280F835
:101F300041200268136823F001031360136823F43F
:101F400080531360136819431160116841F0010157
:101F50001160202180F84110002180F840100846CF
:101F60007047000081B041F26001C4F202010A68CA
:101F700042F001020A60096801F001010091009934
:101F80000421C4F201010A681043086001B07047DF
:101F900010B510F061FD04464068016821F0FE01B3
:101FA0000160204610F0E4FF022084F86C0010BDB0
:101FB00010B50C4610F050FD34B1012C18BF10BD07
:101FC000012180F8751010BD012180F8761010BD38
:101FD00080B5D0F800C0DCF81830DCF80020D90556
:101FE00002F0800208D53AB1416C41F00101416430
:101FF0004FF48071CCF81C10590508D53AB1416CEA
:1020000041F0080141644FF48061CCF81C1099053F
:1020100008D53AB1416C41F0020141644FF40071BE
:10202000CCF81C10416C11F00B0F18BF01F0D8FD5B
:1020300080BD000080B50268436B91691268002B77
:1020400018BF984780BD000080B590F84110202946
:102050001CBF022080BD282180F8411044F281215C
:10206000C0F600014163042101F02EFD002080BD77
:10207000B0B510F0F1FC044690F87400002100287F
:1020800014BFE5680025204611F0BAF835B10120EB
:1020900084F8740020462A4611F0AAF9022084F838
:1020A0006C00B0BD002804BF0120704710B5044685
:1020B00090F8410028B9002084F84000204600F044
:1020C00029F9242084F8410094E80310E3680268A9
:1020D00021F0706122F00102026001618168012B30
:1020E00021F4004181604FF4044108BF4FF40041E6
:1020F00041EA0C01022B816004BF4FF40061416092
:10210000416804F1100C41F0007141F4004141605C
:10211000C16821F40041C1609CE80E10114341EAFE
:102120000321C160216A41EA0C010160016841F0AC
:102130000101016000202021606484F841102063C7
:1021400084F8420010BD000080B5FFF77DFF80BD20
:1021500080B510F081FC082180F86C1080BD000073
:1021600010B582B0044610F077FCD0F88410B9B1F5
:10217000D0F89430A3B190F87C109BB2002918BF1E
:1021800001214FEA416CB0F87810D0F89020C0F8E7
:1021900068C02046CDF800C000F008F802B010BDBD
:1021A000082180F86C1002B010BD0000F0B581B0BD
:1021B000044690F84100202805D194F840000128F9
:1021C00003D1022544E0022542E00D46012184F8B6
:1021D0004010222184F84110102184F8421000217F
:1021E0000698616444F27901C0F600016262638579
:1021F000E0626163618DB1F5807F04D3FF212185A9
:102200004FF0807602E0618D2185E66A216B12290C
:1022100004D1B0F52A4F01D0AA281CD142F20047C0
:102220002046C8F2000701F007FC608DFE2898BF29
:10223000E66A94F82820204629463346009702F0A3
:10224000A1F800252046022184F8405001F03CFC12
:10225000284601B0F0BD0027EBE70000F0B581B0E3
:10226000044690F84100202805D194F84000012848
:1022700003D1022544E0022542E00D46012184F805
:102280004010212184F84110102184F842100021CF
:102290000698616444F27901C0F6000162626385C8
:1022A000E0626163618DB1F5807F04D3FF212185F8
:1022B0004FF0807602E0618D2185E66A216B11295D
:1022C00004D1B0F52A4F01D0AA281CD142F2000750
:1022D0002046C8F2000701F0AFFB608DFE2898BFD2
:1022E000E66A94F82820204629463346009702F0F3
:1022F00049F800252046012184F8405001F0E4FB14
:10230000284601B0F0BD0027EBE700007047000051
:10231000704700007047000080B510F09DFB002161
:1023200080F8761080BD000080B510F095FB00218C
:1023300080F8751080BD000080B5032000F0A2F881
:102340000F2000F009F800281CBF012080BD00F01C
:1023500093F8002080BD000080B511F0C1F8002086
:1023600080BD00000246022082F836005068012835
:1023700008D0906AB0F5000F04D11068C36823F448
:102380006063C3601068036943F001030361816106
:10239000016941F0040101610121002082F8361039
:1023A00070470000002804BF012070472DE9F0416C
:1023B000044690F8360028B9002084F835002046FD
:1023C00000F058F8022084F83600D4E900C2DCF8A6
:1023D0000C30012A02D123F01E0305E0A06AB0F5FB
:1023E000000F08BF23F01E03A168D4F814E0D4E95D
:1023F00008564FF6FF7741F23818BE454FF2F817EE
:1024000041EA0201A06ACFF6197818BF03EA08036F
:10241000CFF6197729433B4031431943012A41EA5A
:10242000000218BFB0F5000F04D1D4E90301104336
:1024300040EA01024FF6FF70864506D0D4E9060156
:1024400042EA0E02104340EA010247F60040CCF88F
:102450000C20C4F20000E16A844502D0CCF82010C0
:1024600002E0226B11430162012084F83600002053
:10247000BDE8F081704700007047000080B50EF0A5
:10248000EDFD80BD80B50EF06FFE80BD47F200000F
:10249000C4F200000168322221F48041016040F260
:1024A0009C11C2F20001096851434DF68362C4F2E7
:1024B0001B32A1FB0212012101EB924143694A1E2A
:1024C0008A4203D213F400711146F7D14069032107
:1024D000800501EAE070704747F20000C4F2000096
:1024E000016841F4804101607047000047F200003C
:1024F000C4F20000006800F4C060704710B50C46DC
:1025000047F21401C4F200010968002801F40070C8
:1025100004D0002808BFFFF7DFFF05E020B1FFF778
:10252000B5FF002818BF10BD4EF61050CEF20000C7
:102530000168012C21F00401016004BF30BF10BD0F
:1025400040BF20BF20BF10BD41F21800C4F20200FE
:10255000816F21F020018167016821F40071016021
:102560007047000041F20000C4F20200016841F02F
:1025700004010160704700002DE9F04782B0044675
:10258000407841F288070007C4F2020702D44FF0F6
:10259000000A2EE0E06B88B1B0F5400F17D0B0F51F
:1025A000000F1BD157F87C0C4FF0000A40F480302C
:1025B00047F87C0CBAF1000F0ED114E0201D002169
:1025C00002F04EFD8246BAF1000F05D10BE04FF04C
:1025D000000ABAF1000F06D0D0460CE04FF0010A15
:1025E000BAF1000FF8D13868E16B20F440000843DD
:1025F00038604FF00008A078800701D4C24664E03C
:1026000057F8300C10F080590BD157F8300C40F0CF
:10261000805047F8300C57F8300C00F08050019093
:10262000019847F20005C4F20005286840F4807064
:102630002860FFF729FC06462868C00506D4FFF786
:1026400023FC801B0328F7D34FF0030ABAF1000FD5
:1026500032D1B86810F4407011D0216D88420BD08F
:10266000B868B96820F4407041F48031B960B96845
:1026700021F48031B960B860C00703D112E00020B6
:10268000C0070FD0FFF700FC064641F2893500BFB6
:10269000B868800706D4FFF7F7FB801BA842F7D382
:1026A0004FF0030ABAF1000F06D1B868216D20F48B
:1026B00040700843C246B860B9F1000F05D157F821
:1026C000300C20F0805047F8300C2068C1070ED144
:1026D000810714D481061AD4810520D4410526D45B
:1026E00041062CD4C10532D4800438D451E0396875
:1026F000226A21F00301114339608107EAD5396864
:10270000626A21F00C01114339608106E4D5396811
:10271000A26A21F44061114339608105DED5396830
:10272000626B21F44021114339604105D8D53968E5
:10273000A26B21F44011114339604106D2D53968AA
:10274000E26A21F4405111433960C105CCD53968A2
:10275000226B21F4403111433960800419D5396866
:10276000206C21F040610143B0F1806F396009D0E5
:10277000B0F1006F0DD157F87C0C40F4801047F891
:102780007C0C06E0201D012102F06AFC002818BF25
:102790008246A078400719D53968606C21F0406105
:1027A0000143B0F1806F396009D0B0F1006F0DD1F5
:1027B00057F87C0C40F4801047F87C0C06E0201D94
:1027C000012102F04DFC002818BF824660784006C7
:1027D0000FD53868A16C20F040500843B1F1805FFC
:1027E000386006D1201D022102F03AFC002818BFF3
:1027F00082466078000605D53868E16C20F080409C
:1028000008433860504602B0BDE8F0872DE9F04338
:1028100081B000287AD042F20008C4F202080446CF
:10282000D8F800000D4600F0070088420CD2D8F816
:10283000000020F007002843C8F80000D8F8000086
:1028400000F00700A84261D1207841F20809C007D2
:10285000C4F2020950D12068810707D5D9F80010C9
:10286000A26821F0F0011143C9F80010D8F8001057
:1028700001F00701A9420CD9D8F8001021F0070196
:102880002943C8F80010D8F8001001F00701A94248
:102890003CD1410707D5D9F80010E26821F4E06186
:1028A0001143C9F80010000708D5D9F800002169C4
:1028B00020F4605040EAC100C9F8000000F0A6F81A
:1028C000D9F8001048F61C32C1F30311C0F601021A
:1028D000515C40F29C1201F01F0120FA01F140F21C
:1028E000F820C2F200000068C2F200021160FFF797
:1028F00033FD01B0BDE8F083606858B102282BD0E9
:1029000003282ED159F8081C890107D4012001B0F1
:10291000BDE8F08359F8081C8907F7D5D9F80010ED
:1029200021F003010843C9F80000FFF7ADFA06469D
:1029300041F28837D9F80000616800F00C00B0EB74
:10294000810F3FF488AFFFF79FFA801BB842F1D99F
:10295000032001B0BDE8F08359F8081C8903D5D5E0
:10296000DCE759F8081C4905D0D5D7E70F220260EB
:1029700041F20802C4F20202136803F00303436049
:10298000136803F0F0038360136803F4E063C3602B
:1029900012684FF4E06303EAD202026142F20000DF
:1029A000C4F20200006800F00700086070470000F1
:1029B00040F29C10C2F200000068704780B5FFF73B
:1029C000F7FF41F20801C4F20201096848F62C320F
:1029D000C1F30221C0F60102515C01F01F01C840A1
:1029E00080BD000080B5FFF7E3FF41F20801C4F2AB
:1029F0000201096848F62C32C1F3C221C0F6010277
:102A0000515C01F01F01C84080BD000041F20C0183
:102A1000C4F2020151F8040C10F00C02086805D051
:102A20000C2A40D100F0030001283CD151F80C0CD5
:102A3000000703D4D1F88800000A02E051F80C0C1A
:102A4000000948F6343300F00F00C0F6010353F8D4
:102A50002030002A184618BF00200C2A18BF7047E3
:102A6000086800F00300022806D0032804BF41F2E2
:102A70000023C0F27A0303E042F20043C0F2F40301
:102A800008680A68C0F30210C2F306220968013020
:102A90005A43B2FBF0F0C1F34161022202EB410163
:102AA000B0FBF1F07047042A07D0082A0BD141F29D
:102AB00000200023C0F27A00CFE742F2004000235A
:102AC000C0F2F400C9E700200023C6E72DE9F04377
:102AD00081B0002800F0728141F200060446C4F281
:102AE0000206B068F168227800F00C08D00601F008
:102AF00003071CD42078C00700F0E980B8F1080F64
:102B000045D0B8F10C0F08BF032F40D06568B5F56C
:102B1000A02F00F0B780B5F5803F00F0B780306897
:102B200020F480303060306820F48020B1E0B8F1CB
:102B3000000F1DD0B8F10C0F08BF012F18D0A169EC
:102B4000306800297AD040F001003060FFF79CF92E
:102B5000054600BF3068800700F18280FFF794F9D6
:102B6000401B02284FF00300F4D901B0BDE8F08308
:102B70003068800703D5A069002800F01F81206A13
:102B8000316809070CD4D6F89410090909E03068B7
:102B9000800340F19C806068002840F098800DE13F
:102BA000316801F0F001884216D902F01DFB0028BF
:102BB00040F00481306840F0080030603068D4E9AB
:102BC000072120F0F00008433060706820F47F4057
:102BD00040EA0220706014E0316841F00801316081
:102BE000316821F0F001014331607168E26921F43C
:102BF0007F4141EA0221716002F0F6FA002840F0BC
:102C0000DD80FFF703FFB16848F61C32C1F3031102
:102C1000C0F60102515C40F29C1201F01F0120FA43
:102C200001F140F2F820C2F200000068C2F2000296
:102C30001160FFF791FB002897D15BE720F00100BE
:102C40003060FFF721F90546306880077FF552AF05
:102C5000FFF71AF9401B02284FF00300F4D984E76C
:102C6000306840F0080030603068D4E9072120F077
:102C7000F00008433060706820F47F4040EA022092
:102C8000706037E7306840F480203060306840F48E
:102C900080303060FFF7F8F8002D054614D000BFF3
:102CA0003068800313D4FFF7EFF8401B64284FF01F
:102CB0000300F5D959E700BFFFF7E6F8401B642889
:102CC0004FF003003FF651AF30688003F4D4207812
:102CD00080072BD5B8F1040F1BD0B8F10C0F08BF3B
:102CE000022F16D0E1683068002900F0468140F4D8
:102CF00080703060FFF7C8F8054600BF30684005B7
:102D00000DD4FFF7C1F8401B02284FF00300F5D99E
:102D10002BE73068400502D5E06800284ED0706887
:102D2000216920F0F85040EA0160706020780007C7
:102D300048D4207840075ED42078800600F1918046
:102D4000A06AB8B3B8F10C0F40F0B980012835D0B3
:102D5000F068E16A00F003028A422FD1226B6FF023
:102D60000F0300F0700103EB0212914226D1616B58
:102D700000F4FE42B2EB012F20D1A16B00F07842AB
:102D8000B2EBC16F1AD1E26B0023CFF6E07303EA16
:102D9000025200F4C001A2F5001291420ED1216C42
:102DA0004FF07E4202EA016100F0C06001F17E4115
:102DB000884203D1002001B0BDE8F083012001B0BA
:102DC000BDE8F0836169D6F89400002963D040F033
:102DD0000100C6F89400FFF757F80546D6F89400AE
:102DE0008007A6D4FFF750F8401B0228F6D903202D
:102DF00001B0BDE8F083B06D10F0805908D1B06D1E
:102E000040F08050B065B06D00F0805000900098A8
:102E100047F20007C4F200073868C00511D43868CB
:102E200040F480703860FFF72FF805463868C00519
:102E300007D4FFF729F8401B02284FF00300F5D90B
:102E400093E6A568052D64D0012D68D0D6F89000D2
:102E500020F00100C6F89000D6F8900020F00400A1
:102E600061E0616AD6F8980000293DD040F0010089
:102E7000C6F89800FFF708F8054600BFD6F8980096
:102E800080073FF55DAFFEF7FFFF401B02284FF0C4
:102E90000300F3D969E620F00100C6F89400FEF7BC
:102EA000F3FF0546D6F8940080077FF542AFFEF7A2
:102EB000EBFF401B02284FF00300F3D955E63168C1
:102EC000022821F0807131606AD1FEF7DDFF0546EE
:102ED0003068800140F18280FEF7D6FF401B022857
:102EE0004FF00300F4D940E620F00100C6F8980046
:102EF000FEF7CAFF054600BFD6F8980080077FF5A9
:102F00001FAFFEF7C1FF401B02284FF00300F3D9AB
:102F10002BE6D6F8900040F00400C6F89000D6F8F2
:102F2000900040F00100C6F89000FEF7ADFF002DC4
:102F3000054641F2883713D0D6F89000800713D4A5
:102F4000FEF7A2FF401BB8424FF00300F4D90CE695
:102F5000FEF79AFF401BB8424FF003003FF605AE64
:102F6000D6F890008007F3D4B9F1000F7FF4E4AEF7
:102F7000B06D20F08050B065DEE620F480703060E7
:102F8000FEF782FF054600BF306840057FF5CEAEF4
:102F9000FEF77AFF401B02284FF00300F4D9E4E566
:102FA0003068000103D4F06820F00300F060F0689E
:102FB0004FF6FF71CFF6EE610840F060FEF764FF58
:102FC000044600BF306880017FF5F4AEFEF75CFF79
:102FD000001B02284FF00300F4D9C6E5F06848F260
:102FE0008C01C0F29D1104F12C0700EA010C8ECF78
:102FF0006FF00F00D4E90F5400EB02100022CFF65F
:10300000E07241EA0C0102EA05520843A2F50012FF
:103010004FF07E4540EA032005EA0465104305F1C0
:103020007E4540EAC7602843F060306840F0807019
:103030003060F06840F08070F060FEF725FF0446D5
:10304000306880013FF5B6AEFEF71EFF001B022878
:103050004FF00300F4D988E5002804BF0120704731
:103060002DE9F041044690F85D0028B9002084F86D
:103070005C00204600F056F8022084F85D002068CD
:10308000D4F80CC00168BCF5E06F21F0400101608C
:103090004FF0000E4CF4006198BF4FF0010EB1F5F7
:1030A000706F4FF0000118BFA162216B29B9012197
:1030B000BCF5E06F88BF02212163D4E90112D4E995
:1030C000045604F1180898E8880111432943314354
:1030D00003F40072114341EA0702A16A42EA0802BE
:1030E0000A430260226B022A4FEA0E3203D10768BC
:1030F00047F400670760042707EA1343676A42EA58
:103100000C02666B1A433A4332434260B1F5005FEA
:1031100004BFE16A016100200121206684F85D108E
:10312000BDE8F081704700002DE9F04381B004460E
:1031300040681D461746B0F5827F0E4603D1A06851
:10314000002800F0858094F85C00012803D102205B
:1031500001B0BDE8F0834FF0010984F85C90FEF700
:1031600093FE94F85D10012969D18046002E4FF03E
:10317000010018BF002F63D0042084F85D000020F8
:1031800020662664A4F84470A4F84670A063A08763
:10319000E087A16AE064B1F5005F20650DD1206889
:1031A000016821F400510160016841F4005101609F
:1031B000B4F846000138A4F846002168D4E902209A
:1031C0004B68B0F5E06F23F4805398BF03F580534C
:1031D000B2F5004F4B6004D121680A6822F48042A6
:1031E0000A6021680A68520603D40A6842F0400265
:1031F0000A60B4F84610B0F5E06F36D8002952D016
:103200006E1C0EE0007B216C0870206C0130206485
:10321000B4F846000138A4F84600B4F84600002887
:1032200041D020688168C907ECD1FEF72DFE002E41
:10323000F3D0A0EB0800A842EFD3032000E0022067
:10324000002184F85D9084F85C1001B0BDE8F08343
:10325000042084F85D002046314632463B46009506
:1032600000F07EF901B0BDE8F083E1B16E1C0CE026
:10327000C068216C21F8020B2164B4F846000138C3
:10328000A4F84600B4F8460068B120688168C90710
:10329000EED1FEF7F9FD002EF4D0A0EB0800A84215
:1032A000F0D30320CCE7A06AB0F5005F44D12068DA
:1032B000012201682B4641F4805101602046012122
:1032C000CDF8008002F098F808B10320B8E7E16873
:1032D0002068B1F5E06F03D9C068216C088002E076
:1032E000007B216C08702046012101222B46CDF87D
:1032F000008002F081F828B1206E40F002002066C4
:1033000003209DE7E0682168B0F5706F01D1C868BF
:1033100012E0097BB0F5E06F0ED1206B02280BD1D3
:103320002046012101222B46CDF8008002F064F8EE
:103330000028E1D12068007B20462946424601F062
:103340009BFF00281CBF2020206620688168C906DA
:1033500006D5216E41F0020121664FF6EF718160C2
:10336000206E002818BF01206AE700002DE9F04315
:1033700081B0044690F85C00012803D1022001B01E
:10338000BDE8F0834FF001091D4616460F4684F84C
:103390005C90FEF779FD94F85D10012969D18046B3
:1033A000002F4FF0010018BF002E00F0CE80032048
:1033B00084F85D0000202066A763A687E687206466
:1033C000A4F84400A4F84600A168C4E91300B1F5CC
:1033D000004F04D12068016841F480410160A06A77
:1033E000B0F5005F08D12068016821F40051016048
:1033F000016841F40051016020680168490603D466
:10340000016841F0400101606168731EE268B1FA31
:1034100081F1B3FA83F349095B09B2F5E06F41EA40
:10342000030128D939B1A16B0988C160B81CA06318
:10343000E08F0138E087E08F00285DD06E1C0AE045
:10344000A16B31F8022BC260A163E08F0138E087E5
:10345000E08F002850D0206881688907F0D4FEF7FB
:1034600013FD002EF4D0A0EB0800A842F0D30320F7
:103470006BE0022069E000294FF6FE7112D0E28F66
:10348000022A06D3A26B1288C260B81C4FF6FE72E5
:1034900004E03A780273A06B4A1C0130A063E08F0D
:1034A0001044E087E08F38B36E1C4F1C0CE0A16B1A
:1034B0000978017301203946A26B1044A063E08FA4
:1034C0000844E087E08FB8B120688168890709D493
:1034D000FEF7DAFC002EF5D0A0EB0800A842F1D3ED
:1034E0003BE000BFE18F0229E1D3A16B0988C160F5
:1034F00002204FF6FE71DFE7A06AB0F5005F04D14D
:103500002068016841F48051016020462946424606
:1035100001F0F6FE00281CBF20202066A06840B104
:10352000B0F5004F0DD12068016821F04001016025
:1035300007E0002000902068C1680091806800903A
:103540000098206E002818BF0120002184F85D90AB
:1035500084F85C1001B0BDE8F0830320F5E70000BB
:103560002DE9F04F81B0044690F85C00012801D1AC
:1035700002259CE101201E4617468A4684F85C001D
:10358000FEF782FC94F85D50D4E90031012D1A68F1
:10359000D3F804C0814640F0A480BAF1000F4FF088
:1035A000010518BF002F00F07C81002E00F079810A
:1035B00094F85D0004281CBF052084F85D000020FD
:1035C00020662764A4F84660A4F84460C4F838A0D4
:1035D000E687A76AA687B7F5005FE064206507D194
:1035E000186820F400501860186840F40050186003
:1035F000E0685F68B0F5E06F27F480552F4698BF0C
:1036000007F58057012E88BF2F465F601F687F0631
:1036100003D41F6847F040071F60771EB1FA81F19D
:10362000B7FA87F7DDF8288049097F09B0F5E06F20
:1036300047EA010064D940B1A06B0088D8600AF164
:103640000200A063E08F0138E0870CF00801012739
:1036500002F0040087EAD10141EA900508F1010671
:10366000E08F20B9B4F84600002800F0D880206828
:10367000816889071BD5E18F012F18D1B9B1A16BE2
:1036800031F8022BC260A163E18F0139E187E18F3C
:1036900061B9A16AB1F5005F08D11DB9016841F4B3
:1036A00000710160016841F4805101600027816868
:1036B000C9070DD0B4F8461051B1C068216C01277C
:1036C00021F8020B2164B4F846000138A4F8460042
:1036D000FEF7DAFB002EC3D0A0EB09004045BFD3B4
:1036E0009BE0B1F5827F09D1042D4FF0020540F037
:1036F000D880A06800283FF450AFD2E00225D0E087
:103700004FF6FE7BA8B1E08F022807D3A06B4FF6DF
:10371000FE710088D8600AF1020006E09AF8000005
:103720000BF101011873A06B0130A063E08F084416
:10373000E0870CF00801012502F0040085EAD101C0
:1037400041EA900608F10107E08F18B9B4F8460085
:10375000002864D02068816889072CD5E18F012D6D
:1037600029D141B3E18F022906D3A16B0988C16039
:1037700002214FF6FE7005E0A16B097801730BF191
:1037800001000121A26B1144A163E18F0844E0878D
:10379000E08F78B9A06AB0F5005F0BD126B9206838
:1037A000016841F4007101602068016841F48051B2
:1037B000016000BF002520688168C90725D0B4F8E2
:1037C000461011B3B4F84610022912D3C168226C16
:1037D00022F8021B2264B4F846100239A4F84610FD
:1037E000B4F8461001290FD8416841F48051416076
:1037F0000AE0007B216C0870206C01302064B4F872
:1038000046000138A4F846000125FEF73DFB002FD5
:103810009AD0A0EB0900404596D3032541E0A06A69
:10382000B0F5005F25D12046012101224346CDF8A5
:10383000009001F0E1FD28B1206E032540F0020068
:1038400020662EE0E1682068B1F5706F01D1C06894
:103850000FE0007B206B02280BD1204601210122C2
:103860004346CDF8009001F0C7FD0028E4D1206860
:10387000007B20688168C90601D4002507E0216E1D
:10388000012541F0020121664FF6EF71816020466B
:1038900041464A4601F034FD00281EBF2020206624
:1038A0000125012084F85D00002084F85C00284692
:1038B00001B0BDE8F08F0000002804BF0120704770
:1038C00010B5044690F83D0028B9002084F83C006B
:1038D000204600F00DF8022084F83D002068211DEC
:1038E00001F076FF012084F83D00002010BD0000AB
:1038F0007047000010B504460068012201F0ACFFDB
:10390000206842F60041C4F2010188420BD044F223
:103910000041C4F20101884205D044F20001C4F222
:103920000101884203D1416C41F400414164816846
:103930000722C0F201021140062902D0B1F5803FF2
:1039400001D1002010BD016841F00101016000209B
:1039500010BD000090F87010012904BF02207047CC
:1039600001688A6822F400028A60002180F87010E1
:103970000846704790F87010012904BF0220704774
:1039800001680A6822F002020A60002180F87010C3
:103990000846704790F87010012904BF0220704754
:1039A00001688A6842F400028A60002180F8701081
:1039B0000846704790F87010012904BF0220704734
:1039C00001680A6842F002020A60002180F8701063
:1039D0000846704710B5A0B10446406F28B90020D2
:1039E00084F87000204600F025F8242060672068E5
:1039F000016821F001010160204602F049F8012828
:103A000001D1012010BD606A10B1204601F098FF7D
:103A10002068416821F490414160816821F02A01C9
:103A20008160016841F001010160204601F0FCFF66
:103A300010BD000070470000C16AAA2902D1002110
:103A4000C1627047C16AB1F52A4F18BF70474FF085
:103A50000071C1627047000080B5806A0023D0E920
:103A60000E128B63936390F84110602905D12021D9
:103A700080F84110FEF78CFA80BDFEF7F9FA80BDA0
:103A8000CA0703D100228B0714D509E090F8412022
:103A900002F02803F222282B08BF42228B0709D507
:103AA00090F8413003F0280CF423BCF1280F08BF34
:103AB00044231A4300684907016848BF42F0B8022E
:103AC000914301607047000010B5446B43F6757C6C
:103AD000C0F6000C4A074FF0B80E64450EEAE272D9
:103AE00010D044F2A513C0F600039C420AD0CB07C5
:103AF00018BF42F0F2028B0748BF42F0F40242F0D6
:103B0000200307E001F01103112B08BF42F09002DF
:103B100042F06003006801F012011229016808BF39
:103B20001A461143016010BD00688169890744BFCE
:103B3000002181628169C90718BF7047816941F01E
:103B40000101816170470000F0B581B0044690F832
:103B5000410000F02801206828291CD1836986696A
:103B60008268C168E568C3F30047022D4FEA164634
:103B700018D186EAD21313F0060F22D001F0FE0608
:103B800020460421FFF77CFF002084F840002046F7
:103B90003946324611E00821C161002084F8400016
:103BA00001B0F0BD20460421FFF76AFF002084F831
:103BB000400006F0FE0220463946FEF7F9F901B052
:103BC000F0BDA16C0131A164A16C0229E8D16FF3B1
:103BD0009F2200210823A164C36184F84010EAE712
:103BE00010B5002304460022CFF6FF7390F8410081
:103BF00084F84220E3626285626C2838114302280F
:103C00002046616408D80321FFF73AFF44F281207F
:103C1000C0F60000282109E00721FFF731FF94F8E2
:103C2000410060284FF0000002D0202184F84110AC
:103C300000212163216860630A68086852040FD478
:103C400000041FD494F84100602832D1202084F869
:103C50004100002084F840002046FEF799F910BD8D
:103C600020F480400860A06B48B343F65921C0F6A9
:103C700000018163002184F84010FEF7D9F8F0B10B
:103C8000A06B13E0086820F400400860E06BB0B15E
:103C900043F65921C0F600018163002184F84010E9
:103CA000FEF7C6F8002808BF10BDE06B816B88479F
:103CB00010BD002084F840002046FEF7D9F910BD61
:103CC000B0B504460020CFF6FF70E062002520204A
:103CD000256384F84100480784F84250656311D594
:103CE0002068616A406A0870616A208D01316162F2
:103CF00040B101382085608D01386085606C40F0EE
:103D00000400606420460721FFF7BAFE20681021F6
:103D1000C161204684F84050FEF716FAB0BD00009D
:103D200010B5044600682022C26142684EF60003C6
:103D3000CFF600631A4042600022226362630022D1
:103D4000CFF6FF72C906E26205D51021C161606C31
:103D500040F0040060642046FFF7E6FE20460321A1
:103D6000FFF78EFE616C94F84100A9B9602813D06A
:103D700094F84100212814D1202084F8410094F8BF
:103D8000420000214028204684F8421084F8401068
:103D90001CD1FEF7BDFA10BD616C2046FFF720FF75
:103DA00010BD94F84100222818BF10BD202084F8CF
:103DB000410094F8420000214028204684F8421037
:103DC00084F8401005D1FEF7A1FA10BDFEF7C8F93E
:103DD00010BDFEF7BDF910BDB0B5002580F842500A
:103DE000044690F841002021212884F841100CD18C
:103DF00011202063204601216563FFF741FE204624
:103E000084F84050FEF7ACF9B0BD12202063204684
:103E100002216563FFF734FE204684F84050FEF728
:103E200097F9B0BD70B5044600680D4620210668BC
:103E3000C16120460721FFF723FE20684EF60002ED
:103E40004168CFF6006241F4004141604168114091
:103E500041602046FFF768FE700404D4300407D5A3
:103E6000E06B10B904E0A06B10B100684068608599
:103E700068070FD52068616A406A25F0040508705C
:103E8000606A411C208D616220B101382085608DFF
:103E900001386085608D18B1606C40F0040060648A
:103EA0000020206384F842006063606C68B1616C3C
:103EB0002046FFF795FE94F84100282818BF70BDF2
:103EC00020462946FFF7FCFE70BDE06A10F5803FF2
:103ED0000DD194F84100202184F8411000212228BE
:103EE000204684F8401013D1FEF716FA70BD002565
:103EF0002046CFF6FF7500F00FF82020E56284F829
:103F00004100002084F840002046FEF71DF970BDF6
:103F1000FEF70AFA70BD0000B0B5002580F84250E7
:103F2000044690F8410029280ED1282084F8410049
:103F30002120206320460121FFF7A2FD204684F8BE
:103F40004050FEF7F1F9B0BD94F841002A2818BF9F
:103F5000B0BD282084F841002220206320460221A1
:103F6000FFF78EFD002084F840002046FEF7D4F9CC
:103F7000B0BD000010B582B0044690F840000128A2
:103F800002D1022002B010BD02EA01004FF0010C84
:103F9000C30684F840C017D40B0624D512F04002A3
:103FA00021D02068016821F040010160628D4168E4
:103FB00082B3608D6FF39F21B0F5807F35D3FF20F2
:103FC00020854FF0807339E020681021C161606C5A
:103FD000122140F0040060642046FFF775FD204682
:103FE000FFF7A2FD42E0420605D480063ED52046FA
:103FF000FFF796FE3AE0608D90B92068416889012C
:1040000034D4E16A11F5803F06D1416841F4804122
:1040100041602BE0880103D42046FFF7DDFE25E058
:1040200020464021FFF7DCFD20E0608D2085E06A1E
:1040300010F5803F14BFE36A4FF0007394F8282016
:104040004FF0000C2046CDF800C000F09BF9208D09
:10405000618D081A608594F841202068222A016841
:1040600014BF41F4804141F400410160002084F814
:10407000400002B010BD000070B582B0044690F858
:104080004000012802D1022002B070BD0D4602EAB4
:10409000050016460121C20684F8401015D44107D8
:1040A0001ED4810726D429063DD516F040013AD00A
:1040B000608D10B1208D00283ED0206840688001BE
:1040C00035D42046FFF788FE20E020681021C1612A
:1040D000606C40F0040060642046FFF725FD15E0A9
:1040E0002068616A406A25F004050870606A218DC5
:1040F000013005E0606A216810F8012B8A62218D89
:104100006062481E2085608D0138608506EA0500E2
:10411000800603D520462946FFF702FE002084F8DA
:10412000400002B070BD4006F0D5608DA8B12046B9
:104130004021FFF755FDE9E720684168608D6FF386
:104140009F21B0F5807F15D3FF2020854FF0000C14
:104150002046FF224FF080731EE0206841688901ED
:10416000D4D4E16A11F5803FABD1416841F480417C
:104170004160CBE7608D2085E26A12F5803F06D171
:104180004FF0000CC2B220464FF0007304E0E36A27
:104190004FF0000CC2B22046CDF800C000F0F2F89B
:1041A000B4E7000010B5D0F82CE090F84030012BB7
:1041B00004BF022010BD02EA010304464FF0010CC7
:1041C000D80684F840C007D4180738D4980652D5CA
:1041D0002046FFF727FE4EE012F4404F33D002F4A2
:1041E000804C10044FF0000206D5E36B23B1186831
:1041F0004068B0FA80F04209BCF1000F06D0A36B12
:1042000023B118684068002808BF0122FAB1BEF146
:10421000007F94F8412008BF282A29D094F8411043
:10422000206810221EF5803FC26124D0292922D1A6
:104230002046FFF779FC2046FFF76EFE1BE0204684
:10424000FFF782FC17E020681021C16113E02068AD
:104250001021C161606C6FF080711EEA010F40F0A7
:104260000400606407D1616C2046FFF7B9FC02E0EE
:104270002046FFF725FD002084F8400010BD000017
:1042800070B50446C06A94F84030012B04BF022088
:1042900070BD16460D4631400122CB0684F8402001
:1042A00015D44A0725D40A0752D4890758D5618DF9
:1042B000002961D0606A216810F8012B8A6260626F
:1042C000608D01386085208D0138208548E0618D42
:1042D00031B321681022CA61616C6FF080721042A4
:1042E00041F0040060643BD1616C2046FFF778FC2C
:1042F00036E0618D71B12168626A496A25F0040572
:104300001170616A228D01316162511E2185618DBA
:1043100001396185618D10F5803F21D0A1B11FE089
:10432000B0F1007F94F8411008BF282914D094F808
:1043300041102268102310F5803FD36110D0292945
:104340000ED12046FFF7F0FB2046FFF7E5FD07E022
:104350002046FFF7F9FB03E020462946FFF7B0FCB3
:1043600006EA0500800603D520462946FFF75AFDD8
:10437000002084F8400070BD6FF080710842EFD1DA
:10438000E2E7000010B50068DDF808C0D0F804E0EE
:104390006FF39F2149F6004419432EEA5C5ECFF685
:1043A000004441EA024104EA0E0441EA0C012143BF
:1043B000416010BDEFF3108000281CBF0120704742
:1043C000EFF31180002818BF01207047EFF3108031
:1043D00000281CBF01207047EFF31180002818BF90
:1043E00001207047EFF3108000281CBF01207047A8
:1043F000EFF31180002818BF01207047EFF3108001
:1044000000281CBF01207047EFF31180002818BF5F
:1044100001207047EFF3108000281CBF0120704777
:10442000EFF31180002818BF01207047EFF31080D0
:1044300000281CBF01207047EFF31180002818BF2F
:1044400001207047EFF3108000281CBF0120704747
:10445000EFF31180002818BF01207047EFF30580AB
:10446000002818BF01207047EFF30580002818BF0F
:1044700001207047EFF30580002818BF0120704726
:10448000EFF30580002818BF01207047EFF3058087
:10449000002818BF01207047EFF30580002818BFDF
:1044A00001207047EFF30580002818BF01207047F6
:1044B000B0B500F077FD40F25424C2F200040125AB
:1044C0006572BFF34F8FFDF75FF9002808BFB0BDDD
:1044D000FDF7E8F8A572B0BD80B540F25420C2F2F5
:1044E000000000214172BFF34F8F827A12B18172B6
:1044F00001F006F800F060FD80BD000081684FF615
:10450000C072C7F6FF72114002318160704700002F
:1045100081684FF6C072C5F6FF7211408160704726
:1045200081684FF6C072C7F6FF7211400131816099
:104530007047000081684FF6C072C6F6FF721140E6
:1045400001F1805181607047D0F8B400102208401A
:1045500000F07F1002EA1131C840704740F2083085
:10456000C5F20400006800F0E070704700EB8100C5
:10457000006E00F0F84070478068C0F3C0007047DC
:104580008068C00F704700008068C0F340707047BB
:104590008068C0F340007047806800F001007047F9
:1045A0008068C0F3007070478068C0F38000704777
:1045B000C06800F44060B0FA80F040097047000025
:1045C000C1F3012300EB8300D0F830C001F01F01DC
:1045D0001F238B40C2F384622CEA030302FA01F129
:1045E000194301637047000081684FF6C072C7F637
:1045F000FF7211400431816070470000C1F34063D5
:1046000000EB8300D0F814C0C1F3045107238B40A2
:104610002CEA030302FA01F11943416170470000DB
:1046200080B54FF6FF7ECB43D0F8B0C0C0F2070E86
:1046300002F0180263EA0E032EFA02F203EA0C03F8
:1046400011401943C0F8B01080BD000040F208319D
:10465000C5F204010A6822F47C1210430860704716
:1046600040F20830C5F20400016821F0E0710160F9
:104670007047000040F20831C5F204010A6822F0D8
:10468000E07210430860704700EB8100D0F860C012
:104690004FF20001C0F2FF3102F0F84201EA0C01D2
:1046A0001A43114341F000410166704700EB81005D
:1046B000016E21F0004101667047000082684FF6EC
:1046C000C073C3F6FF731A4001F08041114401F139
:1046D000004181607047000091FAA1F1B1FA81F1C7
:1046E0000068490003228A401040C840704700001B
:1046F00091FAA1F1B1FA81F1D0F820C089000F231D
:104700008B402CEA030302FA01F11943016270475E
:10471000090A91FAA1F1B1FA81F1D0F824C0890017
:104720000F238B402CEA030302FA01F11943416283
:104730007047000091FAA1F1B1FA81F1D0F800C000
:10474000490003238B402CEA030302FA01F11943C9
:104750000160704791FAA1F1B1FA81F1D0F800C07F
:10476000490003238B402CEA030302FA01F11943A9
:104770000160704743688B43514319434160704760
:1047800091FAA1F1B1FA81F1D0F80CC049000323EC
:104790008B402CEA030302FA01F11943C160704710
:1047A00091FAA1F1B1FA81F1D0F808C049000323D0
:1047B0008B402CEA030302FA01F119438160704730
:1047C0000068C0F3401070470068C0F3C010704725
:1047D00047F20000C4F200000068C0F38030704768
:1047E000806800F0010070478068C0F340007047A7
:1047F000C06880B270470000C068C0B27047000057
:10480000426822F4805211434160704781817047B1
:1048100001737047416941F0020141617047000036
:10482000F0B581B00DF08CFC42F2F850C2F20000FD
:10483000017840F22834C2F2000431B10021017045
:104840002068012141600FF0BDFA20680168C907A6
:104850001CBF81685FEAC1710BD12068016809073C
:1048600044BF81685FEA017108D40DF0ABFC01B070
:10487000F0BD012141600FF0A5FAEEE7082141608B
:1048800042F2F950C2F20000012142F63074017088
:10489000C2F20004207818B112F0FAF9002020705A
:1048A00042F20064C2F2000420780028DDD042F613
:1048B000FC65C2F20005287890B142F2FC56C2F2C3
:1048C000000637680FF08EFA063080B287421ED994
:1048D00030684FF6FA71084480B20FF08DFA18E094
:1048E00042F2A455C2F20005287840B142F2FC50D1
:1048F000C2F2000006680FF075FA864207D942F24C
:10490000FC50C2F2000000680FF076FA03E00FF0EE
:1049100079F90020287000202070A6E770B582B0D9
:10492000064601A814460D46019311F09DFEC0F302
:10493000C0012970010901983170694600F0A6F89C
:10494000DDE900210144022A019104DB01A811F0F4
:1049500091FE2080012002B070BD000070B582B0D1
:10496000054601A80C46019211F07EFE00F0F00011
:10497000202817D10198694600F088F8DDE9002168
:104980000144022A01910BDB01AE304611F06CFEAE
:1049900000F001002870304611F066FE2070012002
:1049A00002B070BD002002B070BD00002DE9F041E2
:1049B00082B00D460B990446002701A8984616467A
:1049C0000191009711F050FE00F0F00130292ED136
:1049D000C0F3C0012170C0F34101296000F0010162
:1049E0000198089F3170694600F050F80199084419
:1049F00000990190461801A93846324611F042FE4E
:104A000090B10198301A11D428680A9C099D012898
:104A100004DB01A811F02EFEA8F800000198012780
:104A2000311A2160286002E0002700E000273846A4
:104A300002B0BDE8F08100002DE9F04381B00C46E2
:104A40008146002601270DF103080E60032E06F1B2
:104A5000010601D901250FE0404601210125C84783
:104A6000012809D19DF80300216800F07F0007FBB1
:104A70000010FF01002520601DB99DF903000028EA
:104A8000E4D4304601B0BDE8F083000080B542F2C6
:104A9000D442C2F20002106041F67960C0F6010013
:104AA000FFF7CAFF80BD000080B54FF0FF3200BFA6
:104AB000CB1701EB536C2CF07F03A1EB030E7F2986
:104AC000C8BF4EF0800E7F294FEAEC1100EB0203C5
:104AD00002F1010283F801E0EADC501C80BD000015
:104AE00070B505680C4625B12846FBF701FD064662
:104AF00001E0D0E901652046FBF7FAFC86421CBFC5
:104B0000002070BD284621463246FBF71CFDB0FA56
:104B100080F0400970BD00007F28BEBF022108441C
:104B2000704743F6FF718842BEBF032108447047B7
:104B30004FF6FE72C0F21F0205219042B8BF042159
:104B400008447047B0B582B00C46B1F5807F019043
:104B50000BDB01AD2846012113F048FE2846214613
:104B600013F04AFE032002B0B0BD0470012002B071
:104B7000B0BD00000121FF28C8BF032108447047D1
:104B800070B582B004460190104615460E4600F0FE
:104B90001DF8FFF7EFFFB04203DD6FF0010002B038
:104BA00070BD01460198FFF7CDFF019908440190BF
:104BB00001A8182113F01AFE012D03DB01A82946D4
:104BC00013F01AFE0198001B02B070BD03210128EA
:104BD000B8BF01210846704770B582B00429019022
:104BE00003DA6FF0010002B070BD911FB1FA81F1DC
:104BF00049094900044603F0010041EA021141EA73
:104C0000C00001AE069DC1B2304613F0EFFD019821
:104C10000221FFF749FF01990844019030462946D7
:104C200013F0EAFD0198001B02B070BDF0B581B031
:104C300004460090104615460E4600F08BF80746D5
:104C4000FFF76AFFB04203DD6FF0010001B0F0BD75
:104C50006E463046102113F0C9FD00983946FFF723
:104C600023FF00992F7A0844009049F66E0049F618
:104C70007301C0F60100C0F60101042F08BF014610
:104C8000304613F09FFD042F18BF032730463946E6
:104C900013F0ACFDA87EE97E022202EA4000002962
:104CA00018BF012140EA810709D095F83D0095F829
:104CB0003C1060F3C40701F0010047EA4017286C7C
:104CC00010B167F07F0704E0A86C002818BF67F0F8
:104CD0007F07E86C10B147F0400704E0686D0028DA
:104CE00018BF47F040076E46F9B2304613F07EFD1C
:104CF000298B304613F080FD05F10C030ECB3046B6
:104D000013F088FDE87E60B105F124030ECB6E46FA
:104D1000304613F07FFD05F130030ECB304613F023
:104D200079FDB7F1FF3F0BDD780605D505F14C03A2
:104D30000ECB684613F06EFD0098001B01B0F0BD6D
:104D400005F140030ECB684613F064FD7806F3D5F9
:104D5000ECE7000070B50446057AC068D4E9041297
:104D600000F0B6F80221042D08BF0C21E27E032DCD
:104D700008BF0E2101EB000572B104F1240207CA3D
:104D800000F0A6F8D4E90C31A26B0646184600F0F4
:104D90009FF8A9190844051D206C08B9A06C30B112
:104DA00004F1400207CA00F093F82844851CE06C27
:104DB00008B9606D30B104F14C0207CA00F088F800
:104DC0002844851C284670BD80B50E2200F066F888
:104DD00080BD000080B50C2200F060F880BD0000AE
:104DE0002DE9F04F83B0DDE90E7B1E46109BDDF808
:104DF00048901546884604460290304639465A4641
:104E0000CDF8009000F03CF88246FFF785FE404563
:104E100004DD6FF0010003B0BDE8F08F0C9806F0E0
:104E2000030100F0010065F3C30040EA410002AD58
:104E3000C846DDF8449000F13001284613F0D6FC56
:104E400002985146FFF730FE0299109B08440290E9
:104E5000284639465A4613F0DDFC012E03DB0D9936
:104E600002A813F0C9FC029849464246FBF702FB30
:104E7000029840440290001B03B0BDE8F08F000090
:104E8000B0B5049D0446084611461A4600F020F8C5
:104E90002918881C002CC8BF081DB0BD10B582B0F1
:104EA0000229019003DA6FF0010002B010BD044640
:104EB0001001C1B201A813F099FC01980021FFF77D
:104EC000F3FD019908440190001B02B010BD0000E1
:104ED000002804BF0846704780B5FBF709FB80BD7A
:104EE000084470477047000010B5044628300CF0A5
:104EF0003DFF58B1E46A4CB1A01C0CF0B1FF18B1F1
:104F0000A468002CF8D10024204610BD00242046BF
:104F100010BD000010B584465CF8303F5BB191F8DD
:104F200003E0DA7872450BD21A465B686BB1DC7825
:104F30007445F9D305E00022C1E90122C1620DE008
:104F40000022C1E90132083303E0C1E9013200F176
:104F50002C031960002A18BF02F1040C2830CCF889
:104F600000100CF04BFF10BDD1E9012C02F1080339
:104F7000002A08BF00F12C03C3F800C0D1E90112D8
:104F8000131D002A08BF00F13003196070470000AC
:104F900080B540F2B870C2F20000006807F01CFE55
:104FA00080BD000080B540F2B870C2F20000006819
:104FB00007F04AFD80BD000080B507F041FC07F016
:104FC00033FD80BD80B507F0E9FD80BDB0B5B0F51B
:104FD0007A7F15D10D4607F0E1FD044601F0C8FBCC
:104FE0002046294601F0AAFA204601F09DFAA8427F
:104FF0000ED1002C02D4204601F086FA0020B0BD6C
:105000004AF2602106A0C0F6010132220FF07EF9BB
:105010004AF2602106A0C0F601013F220FF076F9A6
:1050200066726571203D3D20313030300000000057
:1050300068616E646C6572203D3D2028495251487C
:10504000616E646C65725F74294E5649435F4765B3
:1050500074566563746F72286972712900000000CC
:105060002DE9F04141F20004C4F20204E2680E4668
:105070009107804613D0E168D8F8000001F00301E1
:1050800081420AD148B1E068D8F80410C0F3021098
:105090000130884201D100253AE0012538E0D8F8F6
:1050A000000003280DD0022819D0012821D1216841
:1050B000012301F00202C1F3400183EA5205D9B98C
:1050C00026E0216889034FF0010145D4226802F4EB
:1050D000802381EA9345C2F3804169B918E02168D1
:1050E000012301F48062C1F3802183EA922519B97A
:1050F0000EE00125002159B1E168D8F8042021F023
:1051000073016FF00F0303EB021208431043E060DA
:1051100015B12846BDE8F081206820F0806020604D
:10512000FCF7B2FE074600BF2068000105D5FCF77A
:10513000ABFEC01B0328F7D30325002DE9D1012EB8
:105140000ED00EBB206948F2FF01C0F2FF71014092
:10515000D8E90220C00627E000250029CCD1D7E7F6
:1051600048F2FF012069CFF6FF1101F1B46101405F
:10517000D8F810000023CFF6E073D8F8082003EA2F
:105180000050A0F500100FE0206948F2FF01CFF6B3
:10519000FF110140D8F814004FF07E43D8F80820E2
:1051A00003EA006000F17E4041EA022108432061E9
:1051B000206840F080602060FCF766FE064600BF75
:1051C0002068000105D4FCF75FFE801B0328F7D39D
:1051D0000325002D9DD1D8F81800216908432061CE
:1051E0002846BDE8F0810000B0B582B041F2580514
:1051F000C4F2020529680446C90015D4286840F0A5
:1052000080502860286800F0805001900198FDF7D8
:105210006DF9296821F080512960B0F5007F08D030
:10522000802C0DD9032015E0FDF760F9B0F5007F63
:10523000F6D1812C0DD30120A02C88BF022009E0DB
:10524000A4F17000B0FA80F04009802C08BF022061
:1052500000E0002042F20001C4F202010A6822F0DC
:10526000070202440A60096801F00701081A18BF22
:10527000012002B0B0BD000070B582B004464068A5
:105280001646B0F5827F0D460BD1A068B0F5004FF1
:1052900002D0B0F5806F04D12068016821F0400190
:1052A00001602046802100222B46009600F0A4F8E1
:1052B00028B1206E032540F0200020661DE06068C4
:1052C000B0F5827F16D1A068B0F5004F02D0B0F5DE
:1052D000806F11D120464FF4C06100222B4600960A
:1052E000002500F035F840B1206E032540F0200085
:1052F000206602E0002500E00025284602B070BDCF
:1053000070B582B00D4616464FF4C05100222B46B0
:105310000446009600F01CF888B92046802100223F
:105320002B46009600F068F848B920464FF4C0615B
:1053300000222B460096002500F00AF820B1206ECE
:10534000032540F020002066284602B070BD000012
:105350002DE9F04781460068154682680E461140E7
:10536000A94202D10020BDE8F08786F4C06129433C
:10537000DDF82080B1FA81F19A464C095F1C05E006
:10538000D9F8000081683140A942EBD0002C18BF49
:10539000007B002FF4D0FCF777FDA0EB0800504510
:1053A000EED3D9E900014268B1F5827F22F0E00234
:1053B00042600BD1D9F80810B1F5004F02D0B1F519
:1053C000806F03D1016821F040010160D9F82810F5
:1053D000B1F5005F07D1016821F400510160016857
:1053E00041F400510160012089F85D00002089F836
:1053F0005C000320BDE8F0872DE9F04381B08146D1
:10540000006880680840401AB0FA80F04009904275
:1054100003D1002001B0BDE8F083DDF820801546FF
:105420000E461F465C1C09E0D9F800008068304039
:10543000801BB0FA80F04009A842EAD0002CF3D0DB
:10544000FCF722FDA0EB0800B842EDD3D9E900013A
:105450004268B1F5827F22F0E00242600BD1D9F8B8
:105460000810B1F5004F02D0B1F5806F03D101688B
:1054700021F040010160D9F82810B1F5005F07D193
:10548000016821F400510160016841F4005101609C
:10549000012089F85D00002089F85C00032001B03C
:1054A000BDE8F083B0B54EF62254CEF20004FF20E2
:1054B0002070207880F0FF00B0FA80F0C0F1200565
:1054C0000BF030FEA84228BF451CFE20A84004F87F
:1054D000030CB0BD80B50C300CF020FC002818BFC8
:1054E000012080BD10B5C18904460C300CF05AFC77
:1054F000E2890021904238BF0121084610BD00001A
:105500004EF60450CEF200004FF08051016070471B
:105510004EF60450CEF200004FF08051016070470B
:1055200080B500F011F8002818BF80BD01A00DF073
:1055300017FA00BF536574537973436C6F636B2024
:105540006661696C65640A00F0B597B001AD00242E
:10555000284644211694CDE91444CDE91244FAF7C3
:10556000B0FF04260127284601960B940397FDF708
:10557000ADFA48BBFCF7E8FF1320CDE90104B020E9
:105580000494CDE9077409900220CDE90B070620A9
:105590000D9028200E900720CDE90F0601A8119646
:1055A000FDF794FA80B9FCF7DDFF0F20129003207D
:1055B00013900020CDE91400169012A80421FDF7E5
:1055C00025F9B0FA80F04409204617B0F0BD00007C
:1055D00080B582B0072853D8DFE800F0042A3D5296
:1055E0005252521541F24C00C4F20200016841F0DF
:1055F00001010160006800F00100019001984FF086
:10560000904002B080BD41F24C00C4F2020001683B
:1056100041F080010160006800F080000190019875
:1056200040F20040C4F6000000F5C05002B080BD5A
:1056300041F24C00C4F20200016841F00201016035
:10564000006800F002000190019840F20040C4F6AA
:10565000000002B080BD41F24C00C4F202000168BB
:1056600041F004010160006800F00400019001981D
:1056700040F20040C4F6000000F5806002B080BD3A
:1056800001A00DF06DF900BF50696E6D617020656D
:1056900072726F723A2077726F6E6720706F7274D9
:1056A000206E756D6265722E00000000C0064FF01E
:1056B000200058BF6020704741F20C00C4F2020085
:1056C00050F80C1C090703D4D0F88810090A02E02E
:1056D00050F80C1C090948F6343250F8043C01F02B
:1056E0000F01C0F6010252F82110C3F38102DFE876
:1056F00002F02F02070C42F20041C0F2F40127E051
:1057000041F20021C0F27A0122E00368026803F04E
:105710000303C2F30212022B02F1010206D0032B93
:1057200004BF41F20021C0F27A0103E042F20041DD
:10573000C0F2F4010368B1FBF2F1C3F3062203687F
:105740005143C3F34162022303EB4202B1FBF2F186
:1057500040F29C12C2F20002116050F8040C48F6AC
:105760001C31C0F30310C0F60101085C116821FA76
:1057700000F01060704700004EF68850CEF2000036
:1057800001684FF0000C41F47001016041F200012A
:10579000C4F202010A6842F001020A60C1F808C0BE
:1057A0000B684FF6FF72CEF6F6221A400A604FF4ED
:1057B0008052CA600A6822F480220A60C1F818C0C8
:1057C00040F20001C0F6000140F8801C7047000064
:1057D000B0B542F6004E0368C4F2010E704502D027
:1057E000B0F1804F03D14A6823F07003134343F6AE
:1057F000FF72C4F2010244F2004C9042C4F2010C68
:1058000005DCB0F1804F0AD0704508D00BE0604550
:1058100005D044F20002C4F20102904203D1CA68EA
:1058200023F4407313434C6923F080020B688D68A6
:10583000224370450260C562836218BF604504D18F
:105840000969016301214161B0BD44F20002C4F263
:1058500001029042F6D1F3E780B501F01F014FF04D
:10586000010CD0F820E00CFA01F32EEA03030362E6
:10587000036A02FA01F11943016280BD704700001A
:1058800080B5930706D4D20700F1280015D10CF09B
:1058900033FA80BD836A02F0010203EA010040EAA4
:1058A000020C8842184618BF0020002A08BF18467C
:1058B000BCF1000F08BF604680BD0CF0F7F980BD59
:1058C00010B540F2542CC2F2000CDCF84430FBB1AD
:1058D0001A698A4206D9B3FA83F24FEA521E0024AB
:1058E0000BE000BF1C46DB68891A93B11A6991422C
:1058F000F8D2B3FA83F24FEA521EBEF1000FC0E9AC
:105900000243016108D11A699860511A196103E0D4
:105910000024C0E90243016104F10C01002C08BF1E
:105920000CF14401086010BDC16800291CBF8268E9
:105930008A60C06840F25421C2F200014864704796
:1059400080B5416ACA070CD18A0715D44A071ED40C
:105950000A0727D4CA0630D48A0639D44A0657D54E
:1059600041E00268D0F828C0536823F4003343EACA
:105970000C0353608A07E9D50268D0F82CC053683D
:1059800023F4803343EA0C0353604A07E0D50268EE
:10599000D0F830C0536823F4802343EA0C035360EB
:1059A0000A07D7D50268D0F834C0536823F40043FF
:1059B00043EA0C035360CA06CED50268D0F838C05B
:1059C000936823F4805343EA0C0393608A06C5D599
:1059D0000268D0F83CC0936823F4005343EA0C03F8
:1059E00093604A0614D50268D0F840C05368BCF5ED
:1059F000801F23F4801343EA0C03536008D1D2F8CC
:105A000004C0D0F844E02CF4C00343EA0E03536012
:105A1000090658BF80BD0168806C4A6822F40022E4
:105A20001043486080BD0000B0B582B0044600203D
:105A3000E067FCF729FA21680546096809070BD5D4
:105A40006FF07E4C20464FF4001100222B46CDF81B
:105A500000C000F047F978B92068006840070ED50B
:105A60006FF07E4C20464FF4800100222B46CDF88B
:105A700000C000F037F910B1032002B0B0BD202003
:105A80006067A067002084F8700002B0B0BD00001D
:105A900070B504462269D4E90213006866690A43B6
:105AA000E1693243066846F6F315CEF6FF750A4300
:105AB0002E4032430260426822F440521A43426050
:105AC00048F20002A369C4F2000290421CBF266A99
:105AD0003343866826F43066334344F20046C4F20A
